:020000040800F2
:10000000704F002061020008831D00080F1B0008CC
:10001000811D0008ED070008112400080000000001
:10002000000000000000000000000000A101000826
:100030008308000800000000FD010008D52000082A
:100040007B0200087B0200087B0200087B0200089C
:100050007B0200087B0200087B020008850800087C
:100060007B0200087B0200088B0800087B02000866
:100070007B0200087B0200087B0200087B0200086C
:100080007B0200087B0200087B0200087B0200085C
:100090007B0200087B0200087B0200087B0200084C
:1000A0007B0200087B0200087B0200087B0200083C
:1000B0007B0200087B0200087B0200087B0200082C
:1000C0007B0200087B0200087B0200087B0200081C
:1000D0007B0200087B0200087B0200087B0200080C
:1000E0007B0200087B0200087B0200087B020008FC
:1000F0007B0200087B0200087B0200087B020008EC
:100100007B0200087B0200087B0200087B020008DB
:100110007B0200087B0200087B020008B121000876
:100120007B0200087B0200087B0200087B020008BB
:100130007B0200087B0200087B0200087B020008AB
:100140007B0200087B0200087B0200087B0200089B
:100150007B0200087B0200087B0200087B0200088B
:100160007B0200087B0200087B0200087B0200087B
:100170007B0200087B0200087B02000800000000F0
:100180007B0200087B020008DFF810D000F004F9C1
:100190000048004791260008AFF30080704F002010
:1001A0002C4B19680868B0E8F04F80F30988BFF35A
:1001B0006F8F4FF0000080F311887047000000003F
:1001C00008480068006880F308884FF0000080F35A
:1001D000148862B661B6BFF34F8FBFF36F8F00DF35
:1001E00000BF00BF08ED00E0DFF80C00016841F43B
:1001F00070010160704700BF88ED00E0EFF30980F7
:10020000BFF36F8F134B1A681EF0100F08BF20ED5D
:10021000108A20E9F04F106009B44FF0500080F3CD
:100220001188BFF34F8FBFF36F8F03F075FA4FF054
:10023000000080F3118809BC19680868B0E8F04F25
:100240001EF0100F08BFB0EC108A80F30988BFF3CE
:100250006F8F70472C000020EFF30580704700007F
:100260000648804706480047FEE7FEE7FEE7FEE750
:10027000FEE7FEE7FEE7FEE7FEE7FEE79521000862
:10028000890100082DE9F05F0546002092469B4653
:1002900088460646814640241BE02846414647469C
:1002A000224600F069F853465A46C01A914110D3CD
:1002B00011461846224600F050F82D1A67EB010847
:1002C0004F4622460120002100F047F817EB0009B5
:1002D0004E41201EA4F10104DFDC484631462A4687
:1002E0004346BDE8F09F40EA01039B0703D009E0C5
:1002F00008C9121F08C0042AFAD203E011F8013B12
:1003000000F8013B521EF9D27047D2B201E000F86A
:10031000012B491EFBD270470022F6E710B51346A9
:100320000A4604461946FFF7F0FF204610BD30B5D7
:100330000B46014600202022012409E021FA02F5A3
:100340009D4205D303FA02F5491B04FA02F528443D
:10035000151EA2F10102F1DC30BD202A04DB203A97
:1003600000FA02F1002070479140C2F1200320FA08
:1003700003F3194390407047202A04DB203A21FA06
:1003800002F00021704721FA02F3D040C2F12002AE
:100390009140084319467047064C074D06E0E06857
:1003A00040F0010394E8070098471034AC42F6D3BC
:1003B000FFF7EEFE0C4700082C47000870B5B02090
:1003C00001F060FE00241D211C2000F0BFF9022175
:1003D000084600F0BBF9022000F03CF910F0020FD3
:1003E000F9D1232000F036F900F00F00001F062895
:1003F00003D3641CE4B20A2CE9D33D211C2000F095
:10040000A5F90A2C01D303202BE01121022000F0D2
:100410009DF9022000F01EF910F0110FF9D11E20F5
:1004200000F0E5F95A2000F0E2F9962000F0DFF93B
:10043000A02001F027FE232000F00CF9C0F30014E7
:10044000242000F007F9252000F004F9C0F300157E
:100450001B2000F0FFF81C2000F0FCF82C4302D019
:10046000042000F015FA70BD70B5B02001F01EFE3A
:1004700000241D211C2000F081F90221084600F013
:100480007DF9022000F000F910F0020FF9D12320CD
:1004900000F0FAF800F00F00001F062803D3641CD8
:1004A000E4B20A2CE9D33D211C2000F067F90A2CA4
:1004B00001D303202BE01121022000F05FF902207C
:1004C00000F0E2F810F0110FF9D11E2000F0B4F99D
:1004D0005A2000F0B1F9962000F0AEF9A02001F00A
:1004E000E5FD232000F0D0F8C0F30014242000F034
:1004F000CBF8252000F0C8F8C0F300151B2000F051
:10050000C3F81C2000F0C0F82C4302D0042000F0F7
:10051000D1F970BD70B5264C012500BF14F8251027
:10052000284600F013F96D1CEDB2042DF6D907250D
:10053000284614F8251000F009F96D1CEDB2292D9C
:10054000F6D91B4E00250B3E2A46715D2A2000F08D
:100550002DF96D1CEDB2072DF6D92B25284614F880
:10056000251000F0F3F86D1CEDB2352DF6D977218A
:10057000372000F0EBF80E4E0025183E2A46715D3C
:10058000382000F013F96D1CEDB2042DF6D9392591
:10059000284614F8251000F0D9F86D1CEDB23C2D5A
:1005A000F6D9BDE8704000213E2000F0CFB8000031
:1005B0004845000870B5264C012500BF14F82510E9
:1005C000284600F0DBF86D1CEDB2042DF6D90725A6
:1005D000284614F8251000F0D1F86D1CEDB2292D35
:1005E000F6D91B4E00250B3E2A46715D2A2000F0ED
:1005F000EDF86D1CEDB2072DF6D92B25284614F821
:10060000251000F0BBF86D1CEDB2352DF6D9772121
:10061000372000F0B3F80E4E0025183E2A46715DD3
:10062000382000F0D3F86D1CEDB2042DF6D9392531
:10063000284614F8251000F0A1F86D1CEDB23C2DF1
:10064000F6D9BDE8704000213E2000F097B80000C8
:100650004845000870B50B4D044600220821284685
:1006600000F044FA44F0400001F0C8FB002001F023
:10067000C5FB044601220821284600F037FA20462F
:1006800070BD00000000024070B50B4D0446002212
:100690000121284600F02AFA44F0400001F0BEFB98
:1006A000002001F0BBFB044601221146284600F061
:1006B0001DFA204670BD00000008024000210846D7
:1006C00000F044B80021084600F058B870B50D4D50
:1006D000062400220821284600F008FA204601F0EE
:1006E0008DFB094E0024305D01F088FB641CE4B2F0
:1006F000042CF8D32846BDE870400122082100F000
:10070000F5B90000000002402C45000870B50D4D01
:10071000062400220121284600F0E8F9204601F0D5
:100720007DFB094E0024305D01F078FB641CE4B2CF
:10073000042CF8D32846BDE870400122114600F091
:10074000D5B90000000802402C45000870B50A4CDD
:100750000E46054600220821204600F0C7F928462B
:1007600001F04CFB304601F049FB2046BDE87040EB
:100770000122082100F0BAB90000024070B50A4C0D
:100780000E46054600220121204600F0AFF928461A
:1007900001F044FB304601F041FB2046BDE87040CB
:1007A0000122114600F0A2B90008024070B50546CA
:1007B00005480C46815C3520FFF7C8FF21462846D6
:1007C000BDE87040FFF7C2BF3545000870B505466B
:1007D00005480C46815C3520FFF7D0FF21462846AE
:1007E000BDE87040FFF7CABF35450008FEE710B509
:1007F00001460E20FFF7AAFF0C210220FFF7A6FFFB
:100800000220FFF727FF10F00C0FF9D12620FFF789
:1008100021FFC0F3C0042820FFF71CFF2920FFF7A9
:1008200019FF2D38182801D3012002E0002C02D036
:10083000022000F02DF810BD10B501460E20FFF784
:100840009DFF0C210220FFF799FF0220FFF71CFFFC
:1008500010F00C0FF9D12620FFF716FFC0F3C004EB
:100860002820FFF711FF2920FFF70EFF2D38182849
:1008700001D3012002E0002C02D0022000F01AF87F
:1008800010BD7047022000F049B8102000F046B8B3
:1008900005464FF47A74294603A001F0FBFD20467B
:1008A00000F018F8F7E700006572726F72202020E0
:1008B00025640A0005464FF47A742946034801F07E
:1008C000E9FD204600F006F8F7E70000A808000858
:1008D00072B6FEE770B5044600F00EF90546601CDE
:1008E00002D004480078044400F006F9401BA042FE
:1008F000FAD370BD1C00002070B50446064D800779
:1009000002D5A86901F0CEFFE00604D56869BDE80C
:10091000704001F0C7BF70BD00000020044910B551
:100920000A68024202D00860FFF7E6FF10BD00002F
:10093000143C01402DE9F84F00224FF00108032537
:100940004FF00F0E0B6808FA02F42340A3426ED159
:100950004E68012E05D0022E03D0112E01D0122E8A
:1009600012D186684FEA420C05FA0CF7BE43CF68F5
:1009700007FA0CF7374387604668A6430C79C4F33F
:100980000014944034434460C668570005FA07FCDD
:100990008C6826EA0C06BC403443C4604C68022CC8
:1009A00001D0122C13D1D40800EB8404A346D4F850
:1009B000209054074FEAD46A0EFA0AF629EA06098B
:1009C0000E6906FA0AF646EA0906CBF820600668C0
:1009D0000C7926EA0C0604F00304BC40344304609E
:1009E0004C68E40065D5364C266846F4804626609F
:1009F000246822F0030604F480440094314C34440B
:100A0000A446D4F808489607370F0EFA07F6B44301
:100A10002D4EB04201D1002624E02C4EB04201D12F
:100A200001261FE02A4EB04202D102261AE040E021
:100A3000284EB04201D1032614E0274EB04201D126
:100A400004260FE0254EB04201D105260AE0244ECF
:100A5000B04201D1062605E0224EB04201D1072660
:100A600000E00826BE402643CCF808681E4E3468D5
:100A70004F689C43FF0300D51C4334601A4C241D6F
:100A800026684F689E43BF0300D51E432660164E5E
:100A9000083634684F689C43FF0200D51C4334601D
:100AA000114E0C3634684F689C43BF0200D51C437E
:100AB0003460521C102AFFF445AFBDE8F88F0000E7
:100AC000443802400030014000000240000402406F
:100AD00000080240000C02400010024000140240D6
:100AE00000180240001C0240003C01400AB1816134
:100AF00070470904FBE70000014880687047000068
:100B00001C0000200248816802781144816070470F
:100B10001C0000200B4810B5016841F40071016011
:100B2000016841F480610160016841F480710160F5
:100B3000032000F08DF8002000F006F800F03EF8E9
:100B4000002010BD003C024010B5014688B00022D4
:100B5000372000F05DF8372000F04CF813480024EF
:100B6000016841F020010160006805A900F0200043
:100B70000690684600F018F900F036F90C4940007C
:100B8000B0FBF1F10C480B4A491E026040F2E7321B
:100B9000C0E90324C0E9011400F007FE10B10120F0
:100BA00008B010BD044800F01CFEF9E740380240D0
:100BB00040420F0000140040580200200C4882B050
:100BC000016841F480410160006800F480400090B9
:100BD0000748001F016841F0805101600068002251
:100BE00000F0805000900F21901E02B000F010B86D
:100BF00044380240002809DB00F01F020121914027
:100C00004009800000F1E020C0F8001170470000AA
:100C1000F0B40E4B1B680C46C3F30223C3F1070567
:100C2000042D00D90425191D072901D2002300E055
:100C3000DB1E012606FA05F1491E214099409E401F
:100C4000761E16403143F0BC01F034BC0CED00E0E0
:100C5000064900F0070208684FF6FF03184040EA13
:100C60000220034A10430860704700000CED00E0CA
:100C70000000FA052DE9F0470E46050065D0DFF8C3
:100C80001481D8F80000F7B200F00F00B04207D28C
:100C900088F80070D8F8000000F00F00B04254D17E
:100CA00028683D4C810712D5400703D5206840F4E1
:100CB000E05020602878000703D5206840F46040A9
:100CC00020602068A96820F0F000084320602878A0
:100CD000C0072DD0304968680839012812D0022891
:100CE00013D0032811D00968890700292DDA21685B
:100CF00021F0030101432160FFF7FEFE814641F22E
:100D0000883A0EE009688903EFE709688901ECE792
:100D1000FFF7F2FEA0EB0901514502D90320BDE81F
:100D2000F0872068696800F00C00B0EB810FEFD10C
:100D3000D8F80010404601F00F01B14207D9077002
:100D4000006800F00F00B04201D00120E7E72878EA
:100D5000400705D52068E96820F4E050084320608A
:100D60002878000706D52068296920F4604040EA09
:100D7000C100206000F058F82168084AC1F303114F
:100D8000515CC8400649086006480068FFF7DCFE71
:100D90000020C4E7003C024008380240D446000866
:100DA00028000020200000200F2202600C4A136857
:100DB00003F003034360136803F0F00383601368D8
:100DC00003F4E053C36012684FF4E05303EAD20225
:100DD00002610448006800F00F00086070470000DE
:100DE00008380240003C0240044805490068096890
:100DF000044AC1F38221515CC8407047280000209A
:100E000008380240E44600080448054900680968BB
:100E1000044AC1F34231515CC840704728000020A9
:100E200008380240E4460008154810B5006810F084
:100E30000C02144813D01449042A0FD0082A0ED1EA
:100E40000F4C241F2268236802F03F025B0207D583
:100E50002068C0F38810A0FB010106E0084610BD21
:100E60002168C1F38811A1FB00010023FFF70AFAF2
:100E70002168C1F30141491C4900B0FBF1F010BDEC
:100E8000083802400024F40040787D012DE9F84F35
:100E900004006ED02078DFF83C93C007A9F1040568
:100EA0004AD009F104000168C1F38101012908D089
:100EB0000068C0F3810002280AD1D9F8000040027E
:100EC00006D52868800337D560680028E1D033E074
:100ED0006068B0F5803F10D0B0F5A02F286810D022
:100EE00020F480302860286820F480202860606822
:100EF000A8B1FFF701FE06460DE0286840F48030F7
:100F0000F4E740F480202860F7E700BFFFF7F4FD26
:100F1000801B642873D828688003F7D50CE0FFF79E
:100F2000EBFD064605E000BFFFF7E6FD801B6428E9
:100F3000F0D828688003F7D42078DFF89C828007F7
:100F40004FF0000A3ED5A348001D016811F00C0FB8
:100F500008D00068C0F3810002280BD1D9F8000046
:100F6000400207D42868800716D5E068012800D120
:100F700012E02BE1E068B8B10120C8F80000FFF7EB
:100F8000BBFD064605E000BFFFF7B6FD801B02284B
:100F9000C0D828688007F7D52868216920F0F800B4
:100FA00040EAC10028600DE0C8F800A0FFF7A4FDEA
:100FB000064604E0FFF7A0FD801B02281FD8286822
:100FC0008007F7D42078000722D5824E83486169D4
:100FD000703671B101210160FFF78EFD074604E014
:100FE000FFF78AFDC01B022809D830688007F7D5B3
:100FF0000EE0C0F800A0FFF77FFD074605E082E0A5
:10100000FFF77AFDC01B02287DD830688007F7D42F
:101010002078400768D5DFF8BCB100270BF13C0B06
:10102000DBF80000C0000BD4DBF8001041F0805169
:10103000CBF80010DBF80000012700F08050009092
:10104000674E3068C00510D4306840F4807030605E
:10105000FFF752FD009005E0FFF74EFD0099401AA2
:10106000022850D83068C005F6D55A4EA0686C36B4
:1010700001280FD00528306810D020F00100306022
:10108000306820F004003060A068B8B1FFF734FD8C
:1010900000900FE0306840F00100F4E740F00400F9
:1010A0003060F7E7FFF728FD0099411A41F28830D8
:1010B000814266D830688007F4D50EE0FFF71CFD4A
:1010C000009007E0FFF718FD0099411A41F28830BF
:1010D000814256D830688007F4D42FB1DBF8001075
:1010E00021F08051CBF80010A069C8B33949091D1F
:1010F0000968C1F3810102294AD00228504607D06D
:10110000C8F8600000E03CE0FFF7F6FC04463BE076
:101110004746C8F86000FFF7EFFC064605E000BF51
:10112000FFF7EAFC801B02282BD828688001F7D43F
:10113000D4E907010843A16A2A4A490802EB0141A0
:10114000626A41EA8211084394F82C1040EA016176
:10115000C9F8001001203866FFF7CEFC044606E00F
:1011600036E000BFFFF7C8FC001B022809D828683A
:101170008001F7D52CE000BFFFF7BEFC001B022862
:1011800002D90320BDE8F88F28688001F4D41FE05D
:101190000128F7D0D9F80000E26900F480019142FB
:1011A00014D1226A00F03F0191420FD147F6C0717D
:1011B000626A0140914209D1A26A00F44031914231
:1011C00004D1E16A00F07060884201D00120D9E7C3
:1011D0000020D7E70438024000004742800E474213
:1011E000007000400000FFFF70B5040005D000252E
:1011F000A56294F8510010B106E0012070BD84F89A
:101200005050204600F030F8022084F85100206849
:10121000016821F040010160D4E901010843D4E9EB
:1012200003121143084361690843218B01F40071E3
:101230000843E1690843216A0843A16A0843216819
:101240000860A069042101EA1040616A084321682E
:1012500048602068C16921F40061C16165650120B1
:1012600084F85100002070BD30B587B004461421C9
:101270006846FFF751F8234D2268002122480223D7
:101280000324AA421BD1204A1432156845F4805524
:101290001560126802F480520592026842F0010261
:1012A00002600068CDE9021400F001000590E02022
:1012B000CDE9000305200490694614481EE0144D52
:1012C000AA421DD1104A1032156845F40045156038
:1012D000126802F400420592026842F004020260C1
:1012E0000068CDE9021400F0040005904FF4E050CE
:1012F000CDE900030620049069460648FFF71AFB73
:1013000007B030BD003001403038024000000240DC
:10131000003C0040000802402DE9F84F04464068B8
:101320000025984616460F464FF0040BB0F5827F15
:1013300001D1A06888B194F85000012818D001208C
:1013400084F85000FFF7D8FB814694F851004FF025
:10135000000A01280ED002257DE084F851B0134622
:101360000A462046CDF8008000F02CF9BDE8F88F41
:101370000220FBE7002F6DD0002E6BD084F851B017
:10138000C4F854A0A763A687E687C4F830A0A4F8E1
:1013900034A0A4F836A0C4F840A0C4F844A0A068C3
:1013A000B0F5004F04D12068016821F4804101604C
:1013B00020680168490603D4016841F040010160DA
:1013C000E068D8B139E020688168C90709D0007B9E
:1013D000A16B0870A06B401CA063E08F401EE087EB
:1013E0000CE0FFF789FBA0EB0901414503D3B8F1FD
:1013F000FF3F03D036E0B8F1000F33D0E08F002874
:10140000E1D11DE020688168C90709D0C068A16BDF
:101410000880A06B801CA063E08F401EE0870CE07A
:10142000FFF76AFBA0EB0901414503D3B8F1FF3F89
:1014300003D017E0B8F1000F14D0E08F0028E1D1FD
:101440004A464146204600F0F9FC08B1202060657C
:10145000606D00B10125012084F8510084F850A08E
:10146000284683E70325F6E72DE9F84F044690F870
:10147000500000271D461646894601280DD04FF022
:10148000010B84F850B0FFF737FB804694F8510009
:10149000BA46012804D002278EE00220BDE8F88F6A
:1014A000B9F1000F7DD0002E7BD0032084F85100CD
:1014B000C4F854A0C4F83090A686E686C4F838A0D4
:1014C000A4F83CA0A4F83EA0C4F844A0C4F840A0EE
:1014D000A068B0F5004F04D12068016841F4804154
:1014E000016020680168490603D4016841F04001A9
:1014F0000160E068B0F5006F606803D030B3012E82
:1015000024D040E008B1012E1CD1206B2168008856
:10151000C86006E020688168890709D5216B0988C1
:10152000C160206B801C2063E08E401EE08609E0D5
:10153000FFF7E2FAA0EB0800A84202D3681C01D032
:1015400031E07DB3E08E0028E4D11FE0206B2168FC
:101550000078087306E020688168890709D5216B47
:1015600009780173206B401C2063E08E401EE086EA
:1015700009E0FFF7C1FAA0EB0800A84202D3681CFB
:1015800001D010E075B1E08E0028E4D14246294632
:10159000204600F081FC08B120206065A06820B1E1
:1015A00007E008E0FFE7032706E02068C1688068DD
:1015B0000090606D00B1012784F851B084F850A00C
:1015C00038466BE72DE9F84F044690F850000027A5
:1015D0000A9E1D4692468B464FF0010901280ED007
:1015E000012084F85000FFF787FA804694F85100F4
:1015F000616801280CD0B1F5827F07D102E002209A
:10160000BDE8F88FA16809B9042801D00227C2E01B
:10161000BBF1000F27D0BAF1000F24D01DB394F80E
:101620005100042802D0052084F851000020606594
:10163000C4F838A0E587A587C4F830B0E586A5864C
:101640002064606420680168490603D4016841F0A1
:1016500040010160E068B0F5006F606805D0E8B354
:10166000012D46D07FE0012795E008B1012D39D149
:10167000206B21680088C860206B801C2063E08E8E
:10168000401EE0862EE02068816889070FD5E18E34
:1016900069B1B9F1010F0AD1216B0988C160206BD2
:1016A000801C2063E08E401EE0864FF00009206819
:1016B0008168C9070CD0E18F51B1C068A16B088067
:1016C000A06B801CA063E08F401EE0874FF00109F3
:1016D000FFF712FAA0EB0800B04200E009E001D3E6
:1016E000701C50D1E08E0028CDD1E08F0028CAD1E7
:1016F0003FE0206B216800780873206B401C20635A
:10170000E08E401EE0862EE02068816889070FD5B4
:10171000E18E69B1B9F1010F0AD1216B097801732A
:10172000206B401C2063E08E401EE0864FF00009D5
:1017300020688168C9070CD0E18F51B1C068A16BE6
:101740000870A06B401CA063E08F401EE0874FF044
:101750000109FFF7D1F9A0EB0800B04202D3701CD9
:1017600001D010E07EB1E08E0028CDD1E08F0028BE
:10177000CAD142463146204600F08EFB28B10127EF
:101780002020606507E0032705E0A06818B92068FD
:10179000C16880680090012084F85100002084F81E
:1017A000500038462CE77047704710B5040003D04E
:1017B00094F83D0010B107E0012010BD002084F82E
:1017C0003C00204600F00CF8022084F83D00211D6A
:1017D000206800F0F3FC012084F83D00002010BDDB
:1017E00070470168CA6842F00102CA6000688168F7
:1017F00001F00701062903D0016841F001010160F1
:1018000000207047704770B50446006801694FF0CA
:101810000005C943890715D4C168C943890711D494
:10182000E91E016101202077206880698007204639
:1018300002D0FFF7E7FF04E000F098F8204600F040
:1018400096F8257720680169C943490717D4C1680C
:10185000C943490713D46FF00401016102202077C6
:101860002068806910F4407F204602D0FFF7CAFF4D
:1018700004E000F07BF8204600F079F82577206836
:101880000169C943090716D4C168C943090712D4BD
:101890006FF008010161042020772068C06980078B
:1018A000204602D0FFF7AEFF04E000F05FF82046CC
:1018B00000F05DF8257720680169C943C90617D48F
:1018C000C168C943C90613D46FF010010161082033
:1018D00020772068C06910F4407F204602D0FFF7CF
:1018E00091FF04E000F042F8204600F040F8257730
:1018F00020680169C943C90708D1C168C943C9073C
:1019000004D1891E0161204600F032F82068016987
:10191000C943090609D4C168C943090605D46FF053
:10192000800101612046FFF73EFF20680169C9433D
:10193000490609D4C168C943490605D46FF040017E
:101940000161204600F01EF820680169C94389063C
:101950000BD4C168C943890607D46FF02001016127
:101960002046BDE87040FFF71FBF70BD704770474D
:1019700000680349884201D1FFF7C4B870470000EE
:1019800000140040704770B5040004D094F839008A
:10199000002510B106E0012070BD84F838502046C3
:1019A00000F022F8242084F839002068C16821F46E
:1019B0000051C160204600F065FC2068016921F4F7
:1019C000904101612068416921F02A01416120684C
:1019D000C16841F40051C160E563202084F83900FA
:1019E00084F83A00002070BD10B586B0044614217A
:1019F0006846FEF791FC14492068884221D11348BB
:101A00000021026842F010020260006800F010003D
:101A100005900E481438026842F001020260006826
:101A200000F0010005904FF4C06000900220CDE965
:101A30000101032003900720049069460448FEF743
:101A400079FF06B010BD000000100140443802408C
:101A5000000002402DE9F843044690F839001F4683
:101A600016460D46202850D1B5B1AEB194F83800D5
:101A700001284AD0012084F838004FF00008C4F84B
:101A80003C80212084F83900FFF736F8A68481468F
:101A9000E68484F8388026E00120BDE8F883E08CF5
:101AA000401EE084A0684B46B0F5805F4FF0000216
:101AB0004FF080012046009703D000F077FCE8B992
:101AC0000DE000F073FCC8B928882168C0F3080055
:101AD0004860206908B16D1C05E0AD1C03E0216879
:101AE00015F8010B4860E08C0028D8D14B46002245
:101AF00040212046009700F059FC08B10320CCE7B4
:101B0000202084F839000020C7E70220C5E7FEE75F
:101B100010B500F0A7FDA02000F0B4FAFF212420AA
:101B2000FEF714FE3F212D20FEF710FE622101205A
:101B3000FEF70CFE65210E20FEF708FE172120207F
:101B4000FEF704FE3F21BDE810400320FEF7FEBD76
:101B500010B500F092FDA02000F0A8FAFF2124208B
:101B6000FEF70CFE3F212D20FEF708FE622101202A
:101B7000FEF704FE64210E20FEF700FE1721202050
:101B8000FEF7FCFD3F21BDE810400320FEF7F6BD47
:101B900010B50121114A084600F02CFE104C0F4AE6
:101BA000012160611032084600F024FE0B4AA0615A
:101BB0006C3A00210B4800F0ADFE084AA060483A9C
:101BC0000021094800F0A6FE044AE060243A002102
:101BD000064800F09FFE206110BD0000B4460008DA
:101BE00000000020851F000801200008592000087F
:101BF0002DE9F04186B014216846FEF78DFB2A4896
:101C00000024016841F004010160016801F0040151
:101C10000591016841F0010101600068234F00F067
:101C200001000590224601213846FEF75FFFDFF8EC
:101C30008080002208214046FEF758FF01250095CC
:101C4000CDE90154694638460394FEF773FE194EF8
:101C50000220CDE90006694602943846FEF76AFE86
:101C600008200090CDE90154694640460394FEF7F0
:101C700061FE1020CDE90006694602944046FEF759
:101C800059FE002205210720FEF7C2FF0720FEF7BC
:101C9000B1FF002205210A20FEF7BAFF0A20FEF755
:101CA000A9FF06B0BDE8F0813038024000080240CC
:101CB0000000024000002110104810B50E490160DC
:101CC0004FF48271416000218160C1604FF4007265
:101CD0000161C0E905121822C0E907214162816251
:101CE0000A21C162FFF780FA002803D0BDE8104046
:101CF000FEF7EEBD10BD000000300140680100207D
:101D0000104810B50E4901604FF482714160002106
:101D10008160C1604FF400720161C0E905121022B8
:101D2000C0E90721416281620A21C162FFF75CFAC2
:101D3000002803D0BDE81040FEF7CABD10BD00006A
:101D4000003C0040C00100200C4810B50A49016069
:101D50004FF4E1314160002181600C22C160C0E993
:101D600004128161C161FFF70EFE002803D0BDE8B7
:101D70001040FEF7ADBD10BD00100140180200205C
:101D8000FEE7FEE710B50B4C002208212046FEF7C7
:101D9000ADFE452000F032F81423402206490748E2
:101DA000FFF7BAFA20460122BDE810400821FEF7ED
:101DB0009DBE000000000240A80000206801002035
:101DC00010B50B4C002201212046FEF78FFE452066
:101DD00000F024F840F2F233402206490648FFF7AB
:101DE0009BFA20460122BDE810401146FEF77EBE58
:101DF00000080240E8000020C001002001B582B0C8
:101E000064200090012301AA02A90348FFF7DAFB2E
:101E10009DF804000EBD00006801002001B582B0ED
:101E200064200090012301AA02A90348FFF7CAFB1E
:101E30009DF804000EBD0000C0010020F8B5044666
:101E400040684FF48273984221D1A0684FF48065B6
:101E5000B0F5004F01D0A8420AD12068066826F0EC
:101E6000400606606068984211D1A068A8420ED072
:101E700000920B4600228021204600F039F800280D
:101E800004D0606D40F0200060650320F8BD009232
:101E90000B4600220121EFE738B504461248134BE8
:101EA0000068B0FBF3F04FF47A7358430090606819
:101EB000B0F5827F0DD10B46009200228021204692
:101EC00000F016F870B1606D40F0200060650320EE
:101ED00038BD009830B1401E009020688068C04333
:101EE0000006F6D5002038BD2800002000366E011F
:101EF0002DE9F0411D4617460E460446DDF81880D0
:101F000008E0681C06D0FEF7F7FDA0EB0800A84229
:101F10000BD255B12068806836EA000030D000202E
:101F2000B842EED10020BDE8F0812068416821F080
:101F3000E00141606068B0F5827F0BD1A068B0F528
:101F4000004F02D0B0F5806F04D12068016821F005
:101F500040010160A06AB0F5005F09D12068016806
:101F600021F4005101602068016841F400510160D2
:101F7000012084F85100002084F850000320D2E7AB
:101F80000120CDE79B210E20FEF7E0FB194C1A4EF5
:101F900000E025B120783070174800F03BFAD020DF
:101FA00000F070F80521606900F0E8FB0028F6D128
:101FB000C02000F067F80521606900F0DFFB18B170
:101FC000A02000F05FF8EAE701250020FEF742FBC1
:101FD0008006DED44020FFF7D5FE0848217800783F
:101FE0008842DCD1C8B2401C20706068401C606030
:101FF000D0E700000000002028010020A8000020F9
:102000009B210E20FEF7BAFB114CC02000F04EF8C9
:102010001421A06900F0B2FB18B1A02000F046F82E
:10202000F3E70020FEF730FB8006EED44020FFF7F8
:10203000C7FEA02000F03AF8064800F00BFAD020C6
:1020400000F034F81421A06900F098FBDDE70000EF
:1020500000000020E80000200025064C4FF47A76AE
:1020600005A0616800F016FA3046656000F034FBA8
:10207000F6E70000000000207364666473202564A6
:102080000A00000070B5084C0546002208212046D1
:10209000FEF72CFD2846FFF7B1FE2046BDE8704054
:1020A00001220821FEF722BD0000024070B5084C55
:1020B0000546002201212046FEF718FD2846FFF7BD
:1020C000ADFE2046BDE8704001221146FEF70EBD70
:1020D0000008024010B5502080F31188BFF34F8FE5
:1020E000BFF36F8F02F044F818B104494FF08050ED
:1020F0000860002080F3118810BD000004ED00E0AE
:1021000030B593B030216846FEF706F914210CA8CB
:10211000FEF702F91D480025016841F08051016079
:10212000006800F0805011901948016841F4804126
:1021300001600068022400F48040119001200390A7
:1021400010200490009406940820CDE90750A820A0
:10215000CDE9090404200B906846FEF797FE08B10C
:1021600072B6FEE70CA90F2081E831004FF4A050B1
:102170000F904FF48050109005210CA8FEF77AFDC7
:10218000002801D072B6FEE713B030BD40380240DF
:10219000007000400548016841F470010160034986
:1021A0004FF00060803908607047000088ED00E063
:1021B0000148FFF728BB000058020020F0B5026874
:1021C000254C264D264E274F274B4FF0804CA042E2
:1021D00009D0604507D0A84205D0B04203D0B8422C
:1021E00001D0984204D122F0700E4A6842EA0E02F1
:1021F000A0421BD0604519D0A84217D0B04215D0DC
:10220000B84213D0984211D0184DA8420ED0184DA4
:10221000A8420BD0174DA84208D0174DA84205D0B0
:10222000164DA84202D0164DA84203D122F44075A3
:10223000CA682A434D6922F080022A4302608A68F4
:10224000C2620A688262A04201D0984201D1096943
:10225000016301214161F0BD000001400004004024
:1022600000080040000C0040000401400040014014
:10227000004401400048014000180040001C00409C
:10228000002000402DE9F041044600680169E26841
:1022900021F44051114301612169A068E2690843BA
:1022A0006169114308432168CA6849F20C639A4383
:1022B0000243CA6020684169A26921F44071114358
:1022C0004161E069192764253226B0F5004F354A8F
:1022D000354920684FF0000806D0884201D090426E
:1022E00036D1FEF791FD35E0884201D0904202D10F
:1022F000FEF78AFD01E0FEF777FD61684A18A0FB52
:10230000070148EB0803FDF7BDFF0146B0FBF5F000
:102310000201B1FBF5F06FF01803584301EB8000A8
:1023200006EBC000B0FBF5F000F0F80002EB400255
:10233000B1FBF5F0584301EB800006EBC000B0FBA9
:10234000F5F000F00700216810448860BDE8F081D6
:10235000FEF74AFD61688B0F8A00A0FB0701FDF7BD
:1023600091FF0146B0FBF5F06FF01802504301EB0E
:10237000800006EB0010B0FBF5F000F0F002B1FBBE
:10238000F5F002EB0012B1FBF5F06FF018035843C3
:1023900001EB800006EB0010B0FBF5F000F00F0041
:1023A000D1E7000000140140001001402DE9F04188
:1023B000984617460E460446069D1DE0681C1BD035
:1023C0002DB1FEF799FBA0EB0800A84214D92068B4
:1023D000C16821F4D071C1602068416921F0010118
:1023E0004161202084F8390084F83A00002084F804
:1023F00038000320BDE8F0812068006836EA00005C
:1024000004D00020B842D9D00020F3E70120F9E73A
:10241000FEE7000070B50446E020FFF733FE0B4DE9
:10242000002208212846FEF761FB0520FFF7E6FCA5
:102430006423402221460648FFF716F82846BDE8E7
:10244000704001220821FEF751BB0000000002404D
:102450006801002070B50446E020FFF727FE0B4D11
:10246000002201212846FEF741FB0520FFF7D6FC9C
:102470001423402221460648FEF7F6FF2846BDE811
:10248000704001221146FEF731BB000000080240F7
:10249000C00100200FB4054B10B503A9044A0298EF
:1024A00000F028F810BC5DF814FB00004926000875
:1024B000A40000200907090E002804DB00F1E02039
:1024C00080F80014704700F00F0000F1E02080F861
:1024D000141D704702E008C8121F08C1002AFAD173
:1024E00070477047002001E001C1121F002AFBD194
:1024F000704700002DE9FF4F89B09B460446002538
:1025000006E025280BD05A460B999047641C6D1C99
:1025100020780028F5D10DB02846BDE8F08F0027BF
:10252000B8460122474900E0074314F8013F203B29
:1025300002FA03F00842F7D120782E2819D114F8B6
:10254000010F47F004072A280ED06FF02F022078E1
:10255000A0F1300109290CD808EB880102EB4101F8
:1025600000EB0108641CF2E70A98641C50F8048B25
:102570000A9020780028CED0642808D0692806D098
:1025800075281ED05A460B9990476D1C58E00A9941
:102590004FF00A0901C90A91002802DA40422D21B0
:1025A00002E0390504D52B218DF82010012103E02C
:1025B000F90704D02021F7E78A4608AE0DE0002194
:1025C000FAE70A994FF00A0901C90A91F7E7494663
:1025D000FDF7ADFE303106F8011D0028F7D1ADEB57
:1025E000060000F12009780701D44FF00108C84522
:1025F00002DDA8EB090000E000208046002706E08D
:1026000008A85A46C05D0B9990476D1C7F1C574522
:10261000F6DB04E030205A460B9990476D1CB8F168
:102620000001A8F10108F5DC05E016F8010B5A4697
:102630000B9990476D1CB9F10001A9F10109F4DC77
:10264000641C65E70928010008B502238DF8000025
:10265000012269460248FFF7FDF9002008BD00008D
:102660001802002010B5FEF729F8FEF72FF8FDF745
:1026700051FFBDE81040FDF7A1BE10B5FEF722F8EE
:10268000FEF744F8FDF796FFBDE81040FDF7ECBEFD
:10269000FEF740FAFFF734FDFFF7AAFAFFF70CFB4D
:1026A000FFF72EFBFFF750FBFFF732FAFFF750FA68
:1026B00000F02CF8FFF76CFA00F042F84FF47A744F
:1026C00003A0FFF7E7FE2046FEF704F9F8E7000055
:1026D00064736664730A000010B5EFF3058179B97D
:1026E000EFF3108111B9EFF3118119B106490968AF
:1026F000022905D0002408B100F012FF204610BDC9
:102700006FF00504FAE700007C000020EFF305807D
:1027100068B9EFF310820949086812B9EFF3118222
:102720000AB1022803D028B14FF0FF3070476FF094
:102730000500704701200860002070477C000020E1
:1027400010B5EFF3058070B9EFF310820A490868FD
:1027500012B9EFF311820AB1022804D0012805D082
:102760004FF0FF3010BD6FF0050010BD0220086073
:1027700000F086FF002010BD7C000020F8B50D465B
:102780000024211F4E1C002817D000BFEFF3058244
:1027900092B9EFF3108212B9EFF311821AB1134A12
:1027A0001268022A08D0294601F080FB01280ED0C9
:1027B00065B16FF001040AE00DB10C4607E000219D
:1027C0006A46009101F024FB012802D034462046DD
:1027D000F8BD00980028FAD005494FF080500860F5
:1027E000BFF34F8FBFF36F8FF1E700007C00002035
:1027F00004ED00E0F8B5144603460E464FF0000520
:10280000EFF30580E8BBEFF3108010B9EFF3118010
:1028100018B123480068022840D093B39E423DD8A7
:102820004CB1A0680028E06803D0502836D30120BE
:1028300002E008B132E00020012B05D010B31846A9
:10284000A26801F032F820E040B10320009000229D
:1028500011460120A36801F06CF804E00322002176
:10286000012001F042F8050018D086B100231A4675
:10287000194601F0D5F8012809D0284600F002FEDB
:1028800000250BE0184600F0F3FF050006D00CB160
:10289000216800E00021284600F0E0FD2846F8BD50
:1028A0007C00002038B50024E51E002804D000BFBD
:1028B000EFF30581B9B902E06FF0030411E0EFF323
:1028C000108111B9EFF3118119B11049096802297A
:1028D00009D000231A46194601F0A2F8012800D0B9
:1028E0002C46204638BD00210091694601F0A6F92A
:1028F0000128F5D100980028F3D005494FF0805009
:102900000860BFF34F8FBFF36F8FEAE77C000020B2
:1029100004ED00E02DE9FF414FEA01034FF000050F
:10292000EFF30581039599BBEFF3108111B9EFF334
:10293000118119B11F490968022938D040B3802696
:10294000182100244AB3176807B13C4697691FB1A4
:1029500039467F1E382F02D21779FF0703D0002097
:1029600004B0BDE8F081576907B1BE08D2F808C0CD
:10297000BCF1000F0DD0D5685C2D18D312693AB1A7
:1029800037B18DE806103246214601F0B2FB0390C4
:102990000DE0D7685FB912694AB903AACDE9001200
:1029A000B2B2214601F078FB012800D003950398CC
:1029B000D6E700007C0000202DE9F041134C0F46C3
:1029C000054666692068001D00F04EFC681C07D1B2
:1029D00037B12168BDE8F0410D48091D00F094BCF5
:1029E00020683544B5424560216805D2A068BDE83D
:1029F000F041091D00F070BC6068091D00F06CFC1E
:102A0000206B854200D22563BDE8F0812C000020B8
:102A1000880700202DE9F041054600F081FC2D4C8F
:102A20002069401C206120682B4F10B1E06930B351
:102A30002BE025602069012827D1002606EB8600BF
:102A400007EB800000F03AFC761C382EF6D32348C2
:102A500000F034FC2148143000F030FC1F482830CE
:102A600000F02CFC1D483C3000F028FC1B48503086
:102A700000F024FC194860601430A06005E0206874
:102A8000E96AC06A884200D82560E06A401CE062BA
:102A90006864E86AA169884200D9A06100EB8000FF
:102AA00007EB8000291D00F02FFC00F059FCE069C5
:102AB00000280CD02068E96AC06A884207D2084919
:102AC0004FF080500860BFF34F8FBFF36F8FBDE8AA
:102AD000F08100002C000020D802002038070020E0
:102AE00004ED00E038B500F01BFC104CA068C8B93C
:102AF0000F4800F0E3FB0E48143000F0DFFB0C48F9
:102B00002060143060600A4B00202833009003F1ED
:102B1000500210210A2000F00CFFA06010B105A1A6
:102B200000F09CFCBDE8384000F01ABC68000020B2
:102B30009C070020546D72510000000030B4026CFC
:102B40000B46002A0BD0C1681144C1608468A142C1
:102B500001D30168C16030BC1846FDF7C4BB30BC6E
:102B600070472DE9F041856B174604460026026C3C
:102B700082B1C7B1E068FDF7B6FBE168206C091AC5
:102B8000E1602268914202D2A168081AE060022F37
:102B900016D017E02068A8B9A06801F04DFB0646E2
:102BA0000020A0600EE06068FDF79DFB216C60686E
:102BB00008446060A168884204D32068606001E036
:102BC00005B16D1E6D1CA5633046BDE8F08110B5E2
:102BD000044690F8590058B101280CD002280FD0B3
:102BE000502080F31188BFF34F8FBFF36F8FFEE744
:102BF000206B00F0C9FB2046BDE8104000F0C4BBCC
:102C000010BD000010484FF47051420706D0C01D9F
:102C10000D4920F00700411AC1F570510B4A0023FD
:102C20000144C2E900030839103A21F0070111609C
:102C30004B600B600B1AC0E9001393604FF000402B
:102C40005360D060704700006C0F0020900000209F
:102C5000144E154CA6F29C474FF08058DFF84C906C
:102C600012E000BF00F05CFBF068C568281D00F0B2
:102C7000FBFA2069401E2061E068401EE06000F021
:102C80006FFB2846FFF7A3FFE0680028EAD1386809
:102C90000128F9D9C9F80080BFF34F8FBFF36F8FB8
:102CA000F2E70000740700202C00002004ED00E093
:102CB00070B51D46049C51B1C4F80020C4E90F0151
:102CC0000121204600F068FE84F84C5070BD24605D
:102CD000F4E700002DE9F05F8846DDE90B94154626
:102CE000834691009A460A9EA522206BFDF70DFBB4
:102CF0006FF00301206B01EB8501084420F007070A
:102D0000780707D0502080F31188BFF34F8FBFF3AF
:102D10006F8FFEE70025B8F1000F0FD05FF00000C5
:102D2000221818F8001082F8341018F8001011B1A9
:102D3000401C1028F4D384F8435001E084F8345048
:102D4000382E00D33726E662C4E91365201D00F053
:102D5000C0FA04F1180000F0BCFA2461C6F1380092
:102D60006462A061656584F85850524659463846F9
:102D700000F064FA2060B9F1000F01D0C9F80040FA
:102D8000BDE8F09F30B5114900E011460A68824263
:102D9000FBD34B685C18844203D1406818444860F8
:102DA000084643681C18944209D1084C103C24681A
:102DB000A24209D052681A4442600A68126802604E
:102DC000814200D0086030BD0460F9E79000002027
:102DD00070B5002441600B4D0061914206D8D11AB4
:102DE0008269914206D2011D686807E09A4203D2C7
:102DF000994201D3012403E0011D286800F06CFA18
:102E0000204670BD6800002010B5044600F088FA26
:102E1000A06B28B15FF0000400F0A2FA204610BDBC
:102E20000124F9E730B589B03C4D6EE004980028E4
:102E300006DADDE90601059A90470498002864DB6C
:102E4000069C606910B1201D00F00EFA03A800F086
:102E5000D7F8024604980A2857D2DFE800F00505A3
:102E6000052D334A05052D3394F8280040F0010064
:102E700084F828000599A069059B01442046FFF7C6
:102E8000A7FF68B3216A2046884794F828004007C6
:102E90003BD5002000900598A169002342181946EF
:102EA000204601F00FFBD8B9502080F31188BFF302
:102EB0004F8FBFF36F8FFEE714F8280F20F001004B
:102EC000207022E094F8280040F0010084F82800E7
:102ED0000598A06128B1811813462046FFF778FFB6
:102EE00013E0502080F31188BFF34F8FBFF36F8F33
:102EF000FEE794F82800810703D4204600F044FA46
:102F000003E020F0010084F82800002204A9A8684A
:102F100000F0E2FE002889D109B030BD6800002031
:102F20002DE9FC410F46054600F0EEFB01A800F03C
:102F300067F80446019818B101F032FABDE8FC8147
:102F4000254EAFB170680068D0B30027291B3A4600
:102F5000B06800F0C3FA01F023FA0028EED11F494F
:102F60004FF080500860BFF34F8FBFF36F8FE5E7DE
:102F7000A542EBD801F014FA30682746C068C4684F
:102F8000201D00F071F994F82800410719D5A069B7
:102F90002B4641193A462046FFF71AFFA8B10020F8
:102FA0000346014600902A46204601F08BFA60B99C
:102FB000502080F31188BFF34F8FBFF36F8FFEE770
:102FC00007E020F0010084F82800216A20468847A5
:102FD000B4E70127BAE700006800002004ED00E034
:102FE00006484168096829B14168C968C9684968E3
:102FF000016370474FF0FF31FAE700002C0000201A
:1030000070B5054601F0AEF8064E044630698442BC
:1030100003D200F009F8012000E0002028602046DB
:10302000346170BD68000020F8B5194D20E0C0681B
:10303000C4680668201D00F017F9216A20468847F9
:1030400094F82800400713D5A0693044B04206D94F
:1030500024616060211D286800F03EF908E000202E
:103060000346014600903246204601F02BFA38B163
:10307000286801680029DAD16968C5E90010F8BD3F
:10308000502080F31188BFF34F8FBFF36F8FFEE79F
:103090006800002008484068401C4FF0500080F352
:1030A000118804D0BFF34F8FBFF36F8FFEE7BFF3DC
:1030B0004F8FBFF36F8FFEE798000020074C20680A
:1030C000016841B1C0680021D0F80000FFF728FF77
:1030D000FFF7A8FEF3E701210020F7E768000020D2
:1030E0002DE9F041044600F01BF994F9455004F134
:1030F000240609E0606A48B1304601F019F908B1C8
:1031000000F03CFA6D1E6DB2002DF3DC4FF0FF367F
:1031100084F8456000F024F900F002F994F9445075
:1031200004F1100709E0206948B1384601F000F9C0
:1031300008B100F023FA6D1E6DB2002DF3DC84F8A7
:103140004460BDE8F04100F00BB900002DE9F0410A
:103150000546002700F0D8FA314E306808B9FFF76D
:1031600051FDF06805424BD1C5B3083568070ED054
:1031700005F00700C0F108000544680707D050209B
:1031800080F31188BFF34F8FBFF36F8FFEE72DB32E
:103190007068854234D82248103001460C6801E03E
:1031A00020460C466168A94202D221680029F7D165
:1031B00031688C4224D00768216801606068083754
:1031C000411B10290FD96019420708D0502080F305
:1031D0001188BFF34F8FBFF36F8FFEE710E04160A0
:1031E0006560FFF7CFFD61687068401A7060B26873
:1031F000904200D2B060F06801430020C4E90001B1
:1032000001F0CEF8780707D0502080F31188BFF383
:103210004F8FBFF36F8FFEE73846BDE8F0810000A7
:10322000800000200449086818B10868026D521C2B
:1032300002650868704700002C00002010B5031FCD
:103240004FF080741C601B1F21F001011960191FD1
:10325000044B0B6014390A60091F6FF002024438F6
:103260000A6010BD95300008D0E9013201699A600A
:10327000D0E901235A604A68824201D182684A60DB
:10328000002202610868401E08600868704700005C
:10329000034B036003F15C000860802010607047FE
:1032A000B4080020044B036003F15C0008604FF495
:1032B0008070106070470000100B002000F10801C2
:1032C0004FF0FF32C0E90112C160016100210160CD
:1032D000704700210161704730B50B685A1C02D05D
:1032E00000F1080202E0026904E022465468256801
:1032F0009D42FAD953684B6099608A6051600861B9
:103300000168491C016030BD42684A6093688B6067
:1033100093685960916008610168491C01607047B9
:10332000502080F31188BFF34F8FBFF36F8F0A498E
:103330004868401C486001280CD10848006810F01B
:10334000FF0F07D0502080F31188BFF34F8FBFF3DA
:103350006F8FFEE7704700009800002004ED00E04A
:103360000849486828B1401E486001D180F311889F
:103370007047502080F31188BFF34F8FBFF36F8FDA
:10338000FEE700009800002070B5002827D0144DFB
:10339000A0F108046168E868014207D1502080F379
:1033A0001188BFF34F8FBFF36F8FFEE722683AB1EA
:1033B000502080F31188BFF34F8FBFF36F8FFEE76C
:1033C0008143616000F0A0F9606869680844686042
:1033D0002046FFF7D7FCBDE8704000F0E1BF70BDAC
:1033E000800000204FF0E02000210161816105494B
:1033F0004FF47A720968B1FBF2F1491E416107216D
:10340000016170472800002010B5FCF725FF114925
:1034100010280ED300F1E02090F8F0030A789042D3
:1034200007D2502080F31188BFF34F8FBFF36F8F07
:10343000FEE709480068896800F4E060884207D91F
:10344000502080F31188BFF34F8FBFF36F8FFEE7DB
:1034500010BD0000980000200CED00E010B5084BF6
:10346000002200BF53F832401CB1521C082AF9D385
:1034700010BD43F8321003EBC201486010BD0000DC
:103480009802002010B504000AD000F013F894F858
:10349000460000280CD12046BDE81040FFF774BF5D
:1034A000502080F31188BFF34F8FBFF36F8FFEE77B
:1034B00010BD0000084A002102EBC1035B68834293
:1034C00006D1002042F8310002EBC101486070478C
:1034D000491C0829F0D370479802002070B51546A2
:1034E0000E460446FFF71CFF94F944100020491CC7
:1034F00001D184F8440094F94510491C01D184F8A5
:103500004500FFF72DFFA06B28B92A46314604F18C
:10351000240000F051F82046BDE87040FFF7E0BD00
:1035200010B5020014D00F48806B38B1502080F3E2
:103530001188BFF34F8FBFF36F8FFEE700F0E4F801
:1035400000211046FFF738FA00F02AFF002807D1C3
:1035500005494FF080500860BFF34F8FBFF36F8F66
:1035600010BD00002C00002004ED00E002498A6A32
:1035700002604969416070472C0000200149012028
:10358000486270472C00002010B50C4650B1094924
:1035900009681831FFF7A0FE2046BDE81040012160
:1035A000FFF70ABA502080F31188BFF34F8FBFF3A3
:1035B0006F8FFEE72C00002070B514460D4668B1F1
:1035C0000A4909681831FFF79FFE0CB14FF0FF352B
:1035D00021462846BDE87040FFF7EEB9502080F341
:1035E0001188BFF34F8FBFF36F8FFEE72C000020D1
:1035F00070B504003ED0226DA2B1E06C884200D3C9
:103600000146E06A884235D0012A33D11A4D2A6832
:1036100094420FD1502080F31188BFF34F8FBFF336
:103620006F8FFEE7502080F31188BFF34F8FBFF3F9
:103630006F8FFEE7E162A269002A02DBC1F1380167
:10364000A1610E4E00EB8000616906EB80008142B3
:1036500010D1201DFFF708FEE06AA969884200D951
:10366000A86100EB800006EB8000211DBDE87040E2
:10367000FFF74ABE70BD00002C000020D8020020D9
:1036800030B587B00024039405AA04A903A80494C4
:10369000FFF7FEFDDDE903010094CDE901100023F1
:1036A00015A11748059A00F024FD164D00286863FF
:1036B0001FD000F0D7FE012809D0401C19D150209E
:1036C00080F31188BFF34F8FBFF36F8FFEE7502059
:1036D00080F31188BFF34F8FBFF36F8F4FF0FF3030
:1036E00028630120E8616C6107B0BDE8304000F05C
:1036F00045B807B030BD000049444C45000000000B
:10370000512C00082C0000200248816B491C816369
:10371000704700002C000020164810B5816B11B1D5
:103720000121416210BD002141628169124A01E01C
:10373000B9B1491E01EB810352F82330002BF7D0B9
:1037400001EB810302EB830202F1080453685B681A
:103750005360A34201D15B685360DA680260816103
:1037600010BD502080F31188BFF34F8FBFF36F8FD0
:10377000FEE700002C000020D80200201CB53748CE
:103780000168374A914207D1502080F31188BFF376
:103790004F8FBFF36F8FFEE700683149491E8842A3
:1037A00007D1502080F31188BFF34F8FBFF36F8F85
:1037B000FEE72C4908780190FF20087008788DF802
:1037C00000009DF800009DF8002000F0F0009042FD
:1037D00007D0502080F31188BFF34F8FBFF36F8F56
:1037E000FEE79DF80000204B00F050001870072005
:1037F000986005E09DF8002052008DF80020401EE2
:103800009DF800201206F5D49860032807D05020B8
:1038100080F31188BFF34F8FBFF36F8FFEE74FF434
:1038200040709860019808700C482030016841F49D
:1038300070010160016841F070410160FFF7D2FD45
:1038400000205860FCF7D0FC0848016841F0404176
:103850000160FCF7B5FC00201CBD000000ED00E09D
:1038600071C20F4100E400E09800002034EF00E056
:1038700010B50C4648B184420FD9502080F311880E
:10388000BFF34F8FBFF36F8FFEE7502080F3118897
:10389000BFF34F8FBFF36F8FFEE70222002100F0CE
:1038A00024F8002800D0846310BD38B50C4648B118
:1038B00084420FD9502080F31188BFF34F8FBFF39C
:1038C0006F8FFEE7502080F31188BFF34F8FBFF357
:1038D0006F8FFEE70221134600220091114600F08F
:1038E00028F8002800D0846338BDF8B517460E4686
:1038F000050014D0DEB105FB06F05030FFF726FCC2
:1039000004000AD0002084F8460004F150023B462F
:10391000314628460094FFF7CBF92046F8BD5020E9
:1039200080F31188BFF34F8FBFF36F8FFEE7002046
:10393000E3E738B5049D18B153B1CAB181B120E0B5
:10394000502080F31188BFF34F8FBFF36F8FFEE7D6
:10395000502080F31188BFF34F8FBFF36F8FFEE7C6
:10396000502080F31188BFF34F8FBFF36F8FFEE7B6
:1039700039B1502080F31188BFF34F8FBFF36F8FA1
:10398000FEE750241C46012384F846302B46009461
:10399000FFF78EF9204638BD70B50D46040025D0DE
:1039A000FFF7BEFCD4E90F20216802FB0011A160E3
:1039B0000021A163216861600A46D4E90F01401E1D
:1039C00000FB0121E16021464FF0FF3001F8440F78
:1039D000487004F110008DB1FFF770FC04F1240071
:1039E000FFF76CFCFFF7BCFC012070BD502080F39A
:1039F0001188BFF34F8FBFF36F8FFEE72169002956
:103A0000F0D000F095FC0028ECD004494FF0805035
:103A10000860BFF34F8FBFF36F8FE3E704ED00E063
:103A20002DE9FF4782B01D468A464FF0000804008A
:103A300003D0BAF1000F08D011E0502080F31188B4
:103A4000BFF34F8FBFF36F8FFEE7206C38B150206C
:103A500080F31188BFF34F8FBFF36F8FFEE7022D06
:103A60000AD1E06B012807D0502080F31188BFF302
:103A70004F8FBFF36F8FFEE700F066FB3F4F4FF0B5
:103A800000094FF0805648B9049838B1502080F3AF
:103A90001188BFF34F8FBFF36F8FFEE7FFF740FC36
:103AA000A06BE16B884207D3022D05D00498D0B1FA
:103AB000B8F1000F1AD01EE02A4651462046FFF703
:103AC00050F8616A19B104F1240000F031FC20B112
:103AD0003E60BFF34F8FBFF36F8FFFF741FC0120B4
:103AE00006B0BDE8F087FFF73BFC22E06846FFF731
:103AF0003DFD4FF00108FFF733FCFFF705FEFFF730
:103B00000FFC94F94400401C01D184F8449094F9CE
:103B10004500401C01D184F84590FFF721FC04A921
:103B2000684600F07FFA30B12046FFF7D9FA00F07E
:103B300037FC0020D4E7FFF7F3FBA06BE16B884272
:103B400013D1FFF70DFC04F110000499FFF71CFDE1
:103B50002046FFF7C5FA00F023FC00289ED13E6006
:103B6000BFF34F8FBFF36F8F98E7FFF7F9FB204646
:103B7000FFF7B6FA00F014FC90E7000004ED00E057
:103B80002DE9F0471F4690468946040003D0B9F15D
:103B9000000F08D011E0502080F31188BFF34F8F41
:103BA000BFF36F8FFEE7206C38B1502080F311888F
:103BB000BFF34F8FBFF36F8FFEE7022F0AD1E06B89
:103BC000012807D0502080F31188BFF34F8FBFF337
:103BD0006F8FFEE7FFF718FC5020EFF3118680F39C
:103BE0001188BFF34F8FBFF36F8FA06BE16B8842DB
:103BF00006D3022F04D0002086F31188BDE8F08799
:103C000094F945503A4649462046FEF7AAFF681CFB
:103C100004D06D1C84F845500120EDE7606A00284F
:103C2000FAD004F1240000F083FB0028F4D0B8F1AE
:103C3000000FF1D00121C8F80010EDE770B50E4675
:103C4000040009D0206C78B1502080F31188BFF3B4
:103C50004F8FBFF36F8FFEE7502080F31188BFF3C3
:103C60004F8FBFF36F8FFEE7206848B9A06838B167
:103C7000502080F31188BFF34F8FBFF36F8FFEE7A3
:103C8000FFF7C2FB5020EFF3118580F31188BFF3DB
:103C90004F8FBFF36F8FA16BE06B884218D994F9F7
:103CA0004500491CA163411C04D0401C84F8450018
:103CB00001200EE0606A0028FAD004F1240000F030
:103CC00037FB0028F4D0002EF2D001203060EFE75F
:103CD000002085F3118870BD2DE9F747002683B0D9
:103CE0008A46040003D0BAF1000F08D011E050203A
:103CF00080F31188BFF34F8FBFF36F8FFEE7206C07
:103D000038B1502080F31188BFF34F8FBFF36F8F0E
:103D1000FEE700F019FADFF8F4804FF000094FF0E9
:103D2000805748B9059838B1502080F31188BFF307
:103D30004F8FBFF36F8FFEE7FFF7F2FAA56BC5B1A8
:103D400051462046FEF7FAFE6D1EA563206950B16C
:103D500004F1100000F0ECFA28B1C8F80070BFF3CD
:103D60004F8FBFF36F8FFFF7FBFA012006B0BDE85E
:103D7000F087059808B11EB106E0FFF7F1FA27E0D9
:103D80006846FFF7F3FB0126FFF7EAFAFFF7BCFCF2
:103D9000FFF7C6FA94F94400401C01D184F844901E
:103DA00094F94500401C01D184F84590FFF7D8FAFA
:103DB00005A9684600F036F9002820460AD0FFF72A
:103DC0008FF900F0EDFA2046FFF71EF80028B3D077
:103DD0000020CBE7FFF718F890B104F12400059913
:103DE000FFF7D2FB2046FFF77BF900F0D9FA002855
:103DF000A2D1C8F80070BFF34F8FBFF36F8F9BE75E
:103E00002046FFF76DF900F0CBFA95E704ED00E0EE
:103E10002DE9F04790468946040003D0B9F1000F20
:103E200008D011E0502080F31188BFF34F8FBFF30B
:103E30006F8FFEE7206C38B1502080F31188BFF3FC
:103E40004F8FBFF36F8FFEE7FFF7DEFA5020EFF3DF
:103E5000118680F31188BFF34F8FBFF36F8FA76B6D
:103E6000F7B194F9445049462046FEF767FE7F1E9D
:103E7000A763681C04D06D1C84F84450012010E036
:103E800020690028FAD004F1100000F051FA00284F
:103E9000F4D0B8F1000FF1D00121C8F80010EDE71F
:103EA000002086F31188BDE8F08700002DE9F34378
:103EB000002683B00400354609D0206C78B150202C
:103EC00080F31188BFF34F8FBFF36F8FFEE7502051
:103ED00080F31188BFF34F8FBFF36F8FFEE700F0C1
:103EE00033F9DFF83C814FF000094FF0805748B9B3
:103EF000049838B1502080F31188BFF34F8FBFF37F
:103F00006F8FFEE7FFF70CFAA06BC8B1401EA063ED
:103F1000206810B9FFF786F9A060206950B104F15C
:103F2000100000F005FA28B1C8F80070BFF34F8FF9
:103F3000BFF36F8FFFF714FA012005B0BDE8F083DF
:103F4000049808B166B10FE03DB1502080F31188AC
:103F5000BFF34F8FBFF36F8FFEE7FFF701FA5DE00E
:103F60006846FFF703FB0126FFF7FAF9FFF7CCFBE2
:103F7000FFF7D6F994F94400401C01D184F844902D
:103F800094F94500401C01D184F84590FFF7E8F909
:103F900004A9684600F046F80028204612D0FFF732
:103FA0009FF800F0FDF92046FEF72EFF0028A9D06B
:103FB0009DB3FFF7B5F9606A50B3206B0068C0F19C
:103FC000380126E0FEF720FFE0B1206838B9FFF79E
:103FD000A7F9A06800F070F90546FFF7C1F904F1F0
:103FE00024000499FFF7D0FA2046FFF779F800F093
:103FF000D7F9002886D1C8F80070BFF34F8FBFF300
:104000006F8F7FE72046FFF76BF800F0C9F979E77B
:104010000021A068FFF7ECFA9FE7FFE700208CE79C
:1040200004ED00E02DE9F0410C46050011D0C4B1CB
:10403000FFF776F9174B5A696E682068911B471C89
:1040400017D02F689B6A9F4219D0964217D8012437
:1040500010E0502080F31188BFF34F8FBFF36F8FB4
:10406000FEE7502080F31188BFF34F8FBFF36F8FAF
:10407000FEE70024FFF774F92046BDE8F08188428E
:1040800005D9401A20602846FFF770FAF1E70020B2
:104090002060DCE72C0000202DE9FF5F8346DDE98E
:1040A0000E87994616468A469000FFF74FF805009E
:1040B0001CD05C20FFF74AF8040014D000202563D0
:1040C00084F85900CDE90240CDE900874B463246DD
:1040D00051465846FEF7FEFD2046FEF79BFC0120A8
:1040E00004B0BDE8F09F2846FFF74EF94FF0FF30CF
:1040F000F6E7F0B585B0DDE90B640A9DA6B1DCB149
:104100005C2700972663022684F85960002604AFD6
:10411000CDE90246CDE90057FEF7DCFD2046FEF76B
:1041200079FC049805B0F0BD502080F31188BFF3EE
:104130004F8FBFF36F8FFEE7502080F31188BFF3DE
:104140004F8FBFF36F8FFEE70548C16919B1806BD0
:1041500018B100207047012070470220704700000E
:104160002C00002001484069704700002C0000200E
:104170002DE9F0412E4C0027A06B40B1206A401C75
:104180002062606A00B101273846BDE8F0816669A7
:10419000761C666113D16068006838B1502080F3E6
:1041A0001188BFF34F8FBFF36F8FFEE76068A16880
:1041B0006160A060A06A401CA062FEF711FF206B46
:1041C000DFF87080864209D36068006880B160685B
:1041D000C068C568686886420DD220632068C06ADE
:1041E00000EB800158F821000128CAD90127C8E74F
:1041F0004FF0FF30F1E7281DFFF736F8A86A18B135
:1042000005F11800FFF730F8E86AA169884200D983
:10421000A06100EB800108EB8100291DFFF774F815
:10422000E86A2168C96A8842CED30127CCE700003A
:104230002C000020D802002070B504004FF00001CF
:1042400033D01B4D2868844207D0502080F311885A
:10425000BFF34F8FBFF36F8FFEE7206D38B1401E65
:104260002065E36CE26A9A421FD040B11DE0502005
:1042700080F31188BFF34F8FBFF36F8FFEE7201DD0
:10428000FEF7F2FFE06CE062C0F13800A061E06A86
:10429000A969884200D9A861064900EB800001EBBA
:1042A0008000211DFFF730F80121084670BD000095
:1042B0002C000020D802002070B504004FF0000050
:1042C0002BD0194DE16A2A68D26A914226D2A069A0
:1042D000002804DB2868C06AC0F13800A061134ED2
:1042E00001EB8101606906EB8101884211D1201D3B
:1042F000FEF7BAFF2868C06AE062A969884200D95F
:10430000A86100EB800006EB8000211DFEF7FCFF9A
:1043100002E02868C06AE062012070BDE16C2A6892
:10432000D26A9142F8D370BD2C000020D802002040
:1043300070B5C068C46854B104F118000646FEF7B1
:1043400093FF144DA86B50B13146134815E050202F
:1043500080F31188BFF34F8FBFF36F8FFEE7201DEF
:10436000FEF782FFE06AA969884200D9A8610B497B
:1043700000EB800001EB8000211DFEF7C5FFE06A25
:104380002968C96A884202D90120686270BD00208C
:1043900070BD00002C00002060070020D802002023
:1043A0002DE9F0472C4D00242746A86B38B1FEF7C5
:1043B000B7FFA86B401EA863A86B40B146E0502031
:1043C00080F31188BFF34F8FBFF36F8FFEE729692A
:1043D000224E0120D1B3A6F5916980463068E0B144
:1043E000F068C46804F11800FEF73EFF201DFEF7D8
:1043F0003BFFE06AA969884200D9A86100EB80010F
:1044000009EB8100211DFEF77FFFE06A2968C96A78
:104410008842E3D3C5F82480E0E70CB1FEF7E0FD65
:104420002C6A4CB14FEA0806FFF7A2FE00B16E629B
:10443000641EF9D100202862686A38B10849012752
:1044400038070860BFF34F8FBFF36F8FFEF788FF09
:104450003846BDE8F08700002C00002060070020EF
:1044600004ED00E010B586B0FEF73CFB114CA068EF
:10447000B8B100200390049005AA04A903A8FEF790
:1044800011FFDDE9032102208DE8070000230AA1C6
:104490000B48059AFFF72DFEE06010B106B0012031
:1044A00010BD502080F31188BFF34F8FBFF36F8F83
:1044B000FEE7000068000020546D72205376630010
:1044C000BD3000082DE9FF411E46134602000A9D3B
:1044D0004FF0000016D0144CA768002F0FD0CDE984
:1044E00000130292062917DAFFF72EFE02284FF07A
:1044F00000030FD000226946A068FFF791FA04B0CC
:10450000BDE8F081502080F31188BFF34F8FBFF3D7
:104510006F8FFEE72A46EEE70023324669463846AB
:10452000FFF72EFBEBE70000680000205475C52A5A
:1045300000102024200010203040506070344900CA
:104540008080005A000000000000000062000000AF
:10455000000000003F00000000000000000000001C
:10456000000000000000000000000000000000004B
:104570000000000019000000010000009F00000082
:10458000000000000E000000960000000000000087
:10459000040000003C00000078000000AF000000B4
:1045A00040000000100000006000000072000000E9
:1045B0006F000000C20000003D000000E7000000A6
:1045C00000000000F10000000700000006000000ED
:1045D0002A00000060000000FF00000080000000D2
:1045E000D00000000000000070000000000000008B
:1045F00000000000DC000000F00000003F000000B0
:1046000047000000F7000000F00000003700000045
:10461000550000001500000015000000000000001B
:104620000000000077000000000000000000000013
:10463000000000000000000000000000000000007A
:104640000000000000000000F44600080000000028
:104650000000000000000000000000000008000052
:10466000180000000000000000000000FC460008E8
:10467000000000000000000000000000000000003A
:10468000000800001800000000000000000000000A
:1046900004470008000000000000000000000000C7
:1046A0000000000000020000080000000000000000
:1046B00000000000EC4600080000000000000000C0
:1046C00000000000F04600080000000000000000AC
:1046D00000000000000000000000000001020304D0
:1046E0000607080900000000010203047861310098
:1046F0007861320078315461736B00007832546114
:10470000736B000078335461736B00002C47000812
:1047100000000020A8000000D4240008D4470008AE
:10472000A8000020C84E0000E4240008000000009B
:104730000000000000000000000000000000000079
:104740000000000000000000010000001000000058
:10475000000000000024F400000000000000000041
:104760000000000000000000000000000000000049
:104770000000000000000000000000000000000039
:104780000000000000000000000000000000000029
:104790000000000000000000000000000000000019
:1047A0000000000000000000000000000000000009
:1047B00000000000000000000000000000000000F9
:1047C0000000000000000000AAAAAAAA0000000041
:0447D00000000000E5
:040000050800018965
:00000001FF
